:020000040800F2
:10000000F0060020B5010008C1160008B916000866
:10001000BD1600085D030008D516000800000000AA
:10002000000000000000000000000000C9160008E9
:100030006103000800000000C5160008CD16000886
:10004000CF010008CF010008CF010008CF01000850
:10005000CF010008CF010008CF010008CF01000840
:10006000CF010008CF010008CF010008CF01000830
:10007000CF010008CF010008CF010008CF01000820
:10008000CF010008CF010008CF010008CF01000810
:10009000CF010008CF010008CF010008CF01000800
:1000A000CF010008CF010008CF010008CF010008F0
:1000B000CF010008CF010008CF010008CF010008E0
:1000C000CF010008CF010008CF010008CF010008D0
:1000D000CF010008CF010008CF010008CF010008C0
:1000E000CF010008CF010008CF01000800F002F89E
:1000F00000F050F814A696E8000CB244B344DA4578
:1001000001D100F047F8BAE80F000FA696E83000DA
:10011000A5EB040504EB0607AAEB0704A7F101070A
:100120004FEA15154FEA3414A4F10104AC4201D38F
:1001300000F030F813F0010F18BFFB1A43F0010371
:1001400000F001F8DBE7184780200000A020000045
:10015000103A24BF78C878C1FAD8520724BF30C8F3
:1001600030C144BF04680C60704700007047000055
:100170000023002400250026103A28BF78C1FBD8B0
:10018000520728BF30C148BF0B6070471FB51FBD65
:1001900010B510BD00F0A8F81146FFF7F7FF01F009
:1001A00027FC00F0C6F803B4FFF7F2FF03BC00F031
:1001B000CDF800000948804709480047FEE7FEE700
:1001C000FEE7FEE7FEE7FEE7FEE7FEE7FEE7FEE707
:1001D00004480549054A064B70470000D11600083F
:1001E000ED000008F0000020F0060020F0020020E2
:1001F000F0020020032A40F2308010F0030C00F0DF
:10020000158011F8013BBCF1020F624498BF11F850
:1002100001CB00F8013B38BF11F8013BA2F1040209
:1002200098BF00F801CB38BF00F8013B11F0030381
:1002300000F02580083AC0F0088051F8043B083AE5
:1002400051F804CBA0E80810F5E7121D5CBF51F887
:10025000043B40F8043BAFF30080D20724BF11F801
:10026000013B11F801CB48BF11F8012B24BF00F866
:10027000013B00F801CB48BF00F8012B704710B5D7
:10028000203AC0F00B80B1E81850A0E81850B1E84F
:100290001850A0E81850203ABFF4F5AF5FEA027C8E
:1002A00024BFB1E81850A0E8185044BF18C918C0BE
:1002B000BDE810405FEA827C24BF51F8043B40F85F
:1002C000043B08BF7047D20728BF31F8023B48BF44
:1002D00011F8012B28BF20F8023B48BF00F8012B82
:1002E0007047704770477047754600F02BF8AE4670
:1002F00005006946534620F00700854618B020B532
:10030000FFF766FFBDE820404FF000064FF0000702
:100310004FF000084FF0000BAC46ACE8C009ACE869
:10032000C009ACE8C009ACE8C00921F007018D465E
:10033000704710B50446AFF300802046BDE810407A
:10034000FFF731BF00487047100000200149182016
:10035000ABBEFEE72600020070470000FEE700008B
:100360007047000070B542F20C060446C4F2020663
:1003700000F0A0FA3168C9071CD13068800644BF7C
:10038000202030603068C00607D43069C00704D12F
:10039000306840075CBF002070BD3068C00640F286
:1003A000C800C2F2000021D400213268520725D4CF
:1003B0002AE000BFC4B10546601C10D13068C007F8
:1003C000DBD03068C0071CBF30685FEAC070D4D093
:1003D0003068C007F2D1D0E73068C007CDD000F058
:1003E00069FA401BA042F7D9032070BDC16941F0F2
:1003F0000201C16110213268520705D5C26941F07E
:10040000040142F00102C2613269D20702D1012027
:10041000316070BDC26942F00402C261306920F0EF
:10042000010030610120316070BD000080B541F2F3
:100430000C00C4F202004FF0FF3100224160426024
:100440000160026000F0B2FA002080BD2DE9F043A7
:1004500081B040F2C805C2F200052A7E012A03D10C
:10046000022001B0BDE8F08304460120266828760A
:100470004CF250308846FFF775FF022E1CD1002841
:100480004ED1002042F21004E861C4F20204206858
:1004900040F004002060206840F0400020604CF2F2
:1004A0005030FFF75FFF216821F004012160002137
:1004B000297601B0BDE8F08390BB4FF0FF30C8F85B
:1004C0000000D4E9027007EB8020874228D242F274
:1004D0001006C4F202064FF0000900BFC5F81C90D8
:1004E000306840F0020030607760306840F04000D3
:1004F00030604CF25030FFF735FF316821F00201D7
:10050000316098B9D4E9020107F5806700EB8120DA
:100510008742E3D300200021297601B0BDE8F083B3
:1005200001200021297601B0BDE8F083C8F80070F1
:100530000021297601B0BDE8F083000042F21001ED
:10054000C4F20201086840F0800200200A6070478F
:100550002DE9F04381B040F2C807C2F20007164609
:100560003A7E012A04D1022001B0BDE8F08300BF29
:100570000546012038764CF250300C469946FFF77C
:10058000F1FE28B10021397601B0BDE8F08300BF4B
:1005900042F210080020C4F20208F861D8F8000006
:1005A00040F00100C8F800004CF250302680FFF700
:1005B000D9FED8F80010002821F00101C8F8001079
:1005C00018BF0046DED1012DDCD00020F861D8F83C
:1005D0000000310C40F00100C8F800004CF250302F
:1005E0006180FFF7BFFED8F80010002821F001015C
:1005F000C8F80010C6D1E81E10F1030F4FF000003C
:10060000C0D8F861D8F8000040F00100C8F8000038
:100610004CF25030A4F80490FFF7A4FED8F8001074
:10062000002821F00101C8F80010ABD10020F861CA
:10063000D8F800004FEA194140F00100C8F8000066
:100640004CF25030E180FFF78DFED8F80010002802
:1006500021F00101C8F8001018BF004600213976CA
:1006600001B0BDE8F083000042F20400C4F20200D1
:10067000C16809065CBF0020704740F22311C4F234
:100680006751016048F6AB11CCF6EF510160C068CC
:10069000C0B2C009704700002DE9F04F82B00E686B
:1006A000002E00F0FD8041F20042C4F2010204235A
:1006B00040F2004E904208BF03234FF6FF7CC4F285
:1006C000010E009300240123C1F2100C4FF0000A28
:1006D0004FF000094BE000BF41F20002C4F20102FA
:1006E000009F904208BF022704F00C030F229A409B
:1006F0002BEA020207FA03F34FEA9A051A4346F877
:1007000025204E6840F20C45F202DEF8082054BF66
:1007100022EA080242EA0802C4F20105CEF80820E3
:100720002A68B30254BF22EA080242EA08022A6099
:10073000B303DEF8042054BF22EA080242EA0802AA
:10074000F303CEF80420DEF800204FF0010354BF7D
:1007500022EA080242EA0802CEF800200E680AF1F6
:10076000010A36FA0AF204F1040400F0998003FA4F
:100770000AFB16EA0B08F1D04E68664512DC122E11
:1007800056D8DFE806F0350B4D49555555555555AA
:100790005555555555555545510000BFD1F80C904C
:1007A00046E000BF4FF6FF72C1F2210296420FDC15
:1007B0000022C1F2110296421AD00022C1F21202A6
:1007C000964215D00022C1F22102964210D02FE0AD
:1007D0000022C1F2220296420AD00022C1F2310266
:1007E000964205D00022C1F23202964220D100BFCB
:1007F0008A684AB1012A14BFC0F814B0C0F810B01A
:100800004FF0080914E000BF4FF0040910E000BFEA
:10081000CA6802F104090BE04FF0000908E000BFCC
:10082000CA6802F1080903E0CA6802F10C0900BFB6
:1008300002462646B8F5807F24BF0432203E176862
:100840000F25B54027EA050509FA06F63543156078
:10085000CA79D2067FF582AF41F21803C4F20203CF
:100860001A68AEF57E7642F001021A601A6802F04C
:1008700001020192019A2AF0030256F802B040F6F2
:100880000002C4F20102904208D040F60042C4F2D5
:10089000010290427FF420AF012725E7002723E7DC
:1008A00002B0BDE8F08F0000002A08BF0904016112
:1008B0007047000040F2E800C2F200000068704794
:1008C000002804BF0120704770B504460068D4E9D1
:1008D00001124CF6CC43036045F25553036041606E
:1008E0008260FFF7E7FF2168CA68920712D00546C9
:1008F00041F23D3603E000BFC86880070AD0FFF729
:10090000D9FF401B2168B042F6D3C8688007F3D0F6
:10091000032070BD4AF6AA200860002070BD0000C8
:1009200040F2000040F2E801C2F20000C2F2000111
:1009300000780A68104408607047000080B542F2F1
:100940000000C4F20200016841F0100101600320C0
:1009500000F07CF80F2000F005F800F029F80020E6
:1009600080BD000070B540F20006C2F2000640F201
:1009700008013278C2F200014FF47A730968B3FBC0
:10098000F2F20446B1FBF2F1084600F0EBFB0F2C4B
:100990004FF0010508D838B94FF0FF30214600224A
:1009A000002500F027F87460284670BD70470000ED
:1009B00082B041F21800C4F202000168022241F044
:1009C00001010160016801F0010101910199416893
:1009D00041F080514160406800F0805000900098E4
:1009E0000420C4F20100016862F31A61016002B0E0
:1009F0007047000010B54EF60C5CCEF2000CDCF82F
:100A00000030C3F3022E8EF00704042C28BF042408
:100A1000BEF103034FF0FF3E0EFA04F438BF00238B
:100A2000A14399400EFA03F39A43114300F00F02D9
:100A300000F160430901043A03F56443624400286D
:100A400048BF02F10C03197010BD00004EF60C51A6
:100A5000CEF200010A684FF6FF031A4060F30A2243
:100A600042F0806040F0FD7008607047002804BFCD
:100A7000012070472DE9F04381B042F20008C4F232
:100A800002080446D8F800000D4600F00700814235
:100A90000CD9D8F8000020F007002843C8F800005F
:100AA000D8F8000000F00700A8426CD1206841F29D
:100AB00004098107C4F2020917D5410705D5D9F801
:100AC000001041F4E061C9F80010010705D5D9F81C
:100AD000001041F46051C9F80010D9F80010A26864
:100AE00021F0F0011143C9F80010C00742D1D8F835
:100AF000000000F0070085420CD2D8F8000020F07A
:100B000007002843C8F80000D8F8000000F00700EC
:100B1000A84238D12068410707D5D9F80010E2680B
:100B200021F4E0611143C9F80010000708D5D9F895
:100B30000000216920F4605040EAC100C9F80000BB
:100B4000D9F8002002F00C00082841F20020C0F281
:100B50007A004DD142F2B613C2F38341C0F60003CE
:100B6000595CD20338D440F60010C0F23D0048432F
:100B70003EE000BF606859F8041C022808D0012834
:100B800026D1890306D4012001B0BDE8F08300BF5F
:100B90008901F8D5D9F8001021F003010843C9F8FC
:100BA0000000FFF787FE064641F28837D9F80000BB
:100BB000616800F00C00B0EB810F98D0FFF77AFE6F
:100BC000801BB842F2D9032001B0BDE8F08300BF1A
:100BD0008907D8D5DEE700BFD9F8002042F2B41368
:100BE000C2F34042C0F600039A5C4843B0FBF2F007
:100BF000D9F8001042F29C12C1F30311C0F60002B2
:100C0000515C40F2080220FA01F140F20400C2F205
:100C100000000068C2F200021160FFF7A3FE00208E
:100C200001B0BDE8F083000070B541F20005C4F2E8
:100C30000205FFF73FFE2968044641F001002860E5
:100C40002868800706D4FFF735FE001B0228F7D975
:100C5000032070BD2868102161F3C7002860FFF7EA
:100C600029FE0446002041F288366860686810F06A
:100C70000C0F07D0FFF71EFE001BB042F6D9032071
:100C800070BD00BF40F20400C2F2000040F2080153
:100C900041F200220068C2F20001C0F27A020A604A
:100CA000FFF760FE00281CBF012070BDFFF702FEA9
:100CB0002968044621F08070286000BF2868800100
:100CC00006D5FFF7F7FD001B0228F7D9032070BDFA
:100CD00000206860FFF7EEFD2968044621F410202B
:100CE000286000BF2868800308D5FFF7E3FD001BDC
:100CF00064284FF0030088BF70BDF3E7286820F434
:100D000080202860686A40F0807068620020A860D7
:100D100070BD000040F2080041F20401C2F2000080
:100D2000C4F202010068096842F2AC12C1F3022168
:100D3000C0F60002515CC8407047000040F2080055
:100D400041F20401C2F20000C4F202010068096825
:100D500042F2AC12C1F3C221C0F60002515CC8409D
:100D600070470000002804BF012070472DE9F041C2
:100D700082B00446007841F20006C007C4F20206C1
:100D80000CD0706800F00C00042840F081803068BE
:100D9000800303D56068002800F046812078800732
:100DA0001BD5706810F00C0F09D0706800F00C00B3
:100DB000082840F087807068C00300F183803068A5
:100DC000800703D52069012840F02E8130686169D1
:100DD00020F0F80040EAC10030602078000713D40A
:100DE000207840072CD4E569002D00F01881706848
:100DF00000F00C00082840F0A780012D40F004818D
:100E0000012002B0BDE8F081A069002800F08480D4
:100E10000020C4F242200121C0F88014FFF74AFDEF
:100E2000054600BF706A800700F1B280FFF742FDFF
:100E3000401B0228F6D9032002B0BDE8F08100BFB4
:100E4000F0695FEAC00808D4F06940F08050F061B2
:100E5000F06900F080500090009847F20007C4F25B
:100E600000073868C00549D4386840F4807038609D
:100E7000FFF720FD054600BF3868C0053ED4FFF7E8
:100E800019FD401B6428F7D9032002B0BDE8F081AA
:100E9000706800F00C00082803D17068C0033FF5AB
:100EA00076AF61683068002900F00C81B1F5A02FA1
:100EB00000F00081B1F5803F40F01A8140F48030AD
:100EC0001CE100BF2069002840F20000C4F242206B
:100ED00000F0888001210160FFF7ECFC054600BFAF
:100EE000306880073FF572AFFFF7E4FC401B022833
:100EF000F6D9032002B0BDE8F08100BFE168306A96
:100F0000002900F09D80052900F09280012940F021
:100F1000AF8040F00100B1E00020C4F24220002187
:100F2000C0F88014FFF7C6FC054600BF706A800752
:100F30007FF556AFFFF7BEFC401B0228F6D9032011
:100F400002B0BDE8F08100BF0027C4F242270020B4
:100F50003866FFF7AFFC022D05460DD130688001E1
:100F600040F1DE80FFF7A6FC401B02284FF0030093
:100F7000F4D902B0BDE8F081306880014FD5FFF7A9
:100F800099FC401B02284FF00300F5D9F1E700BFA0
:100F900040F20800C2F20000006844F6D351C1F2EA
:100FA0006201A0FB0101480A019000BF00BF019847
:100FB000411E002801913FF413AF00BF0198411E6C
:100FC000002801913FF40CAF00BF0198411E00289A
:100FD00001913FF405AF00BF0198411E0028019127
:100FE000E4D1FDE600210160FFF764FC054600BF87
:100FF000306880077FF5F1AEFFF75CFC401B0228EC
:101000004FF00300F4D9B4E77068216A00F480322D
:101010008A4209D1616A00F47010884204D100202C
:1010200002B0BDE8F08100BF012002B0BDE8F08150
:1010300040F004003062306A40F001001EE000BF62
:1010400020F001003062306A20F004003062FFF7C7
:1010500031FC054641F28837306A800720D5FFF71A
:1010600029FC401BB8424FF00300F5D981E700BFCF
:1010700020F001003062306A20F004003062FFF797
:1010800019FC054641F28837306A800708D4FFF71B
:1010900011FC401BB842F7D9032002B0BDE8F08133
:1010A000B8F1000F3FF59FAEF06920F08050F0617D
:1010B00099E600BF40F480203060306840F4803012
:1010C0001CE000BF20F480303060306820F48020C5
:1010D0003060FFF7EFFB0546306880037FF55EAEBA
:1010E000FFF7E8FB401B64284FF00300F4D940E70A
:1010F00020F480303060306820F480203060FFF7CA
:10110000D9FB0546306880033FF548AEFFF7D2FBB8
:10111000401B6428F6D9032002B0BDE8F08100BF6F
:10112000206AB0F5803F05D17168A26821F40031D2
:10113000114371607168626A21F4741111430843AC
:10114000706001203866FFF7B5FB04463068800107
:101150003FF565AFFFF7AEFB001B02284FF0030021
:10116000F4D906E7411E0020B0EB116F1CBF01202F
:1011700070474EF21002CEF2000251604EF623513B
:10118000CEF20001F0230B700721906011607047D0
:10119000002804BF0120704710B5044690F84100B4
:1011A00028B9002084F84000204600F063F824208D
:1011B00084F841002068D4E90212C36823F4005384
:1011C000C360036923F440531A430261D4E9042342
:1011D0001143C268194341F20C639A431143C16041
:1011E0004169A26921F44071114343F60002C4F23F
:1011F00001029042416103D0FFF78CFD02E000BF85
:10120000FFF79CFDD4E90023192148439900B0FB66
:10121000F1F048F21F5CC5F2EB1CA0FB0C314FF65D
:101220009C734909C0F6FF7301FB0300322303EBF3
:101230000010A0FB0C03F02000EA531000EB01109B
:10124000C3F34311084490601069202120F49040BA
:101250001061506920F02A005061D06840F40050BD
:10126000D0600020606484F8411084F8421060630C
:1012700010BD000070B586B040F60004C4F2010451
:10128000006804F54051002688420596CDE90366C2
:10129000029601D006B070BD41F21800C4F20200FF
:1012A000016802AD41F480410160016801F48041B0
:1012B00001910199016841F004010160006829462B
:1012C00000F00400019001984FF400700290022099
:1012D0000390032005902046FFF7DEF94FF480606D
:1012E000CDE90206204629460496FFF7D5F906B057
:1012F00070BD00002DE9F04381B0044690F8420033
:10130000202809D1884600294FF0010018BF002A83
:1013100006D101B0BDE8F083022001B0BDE8F08342
:10132000002022211D46606484F842102063164686
:10133000FFF7C0FAA685E685A1680746B1F5805F8C
:1013400002D12069002851D046464FF00008E08DB8
:1013500000284FD005F101090CE000BF40680026CD
:101360006FF35F2028F8020BE08D0138E085E08DF7
:1013700000283FD020680168890617D4B9F1000F12
:1013800022D0002D00F0CA80FFF794FAC01BA842BB
:1013900000F2BC802068C168490744BF01685FEA69
:1013A00001712FD401688906EED500BF002ED5D07B
:1013B000A168B1F5805F15D009B9216991B1406884
:1013C00000F07F000FE000BF01688906EED40168DD
:1013D00089065CBF01685FEA8161E7D4016889061C
:1013E000F2D5E3E7406806F8010BBDE70026E08D83
:1013F0000028AFD10020202184F8421001B0BDE8C0
:10140000F08300BF002100910168009140680090C6
:10141000009800BF206850E8030F216820F4907006
:1014200041E80302BAB3206850E8030F216820F4B2
:10143000907041E8030272B3206850E8030F2168FE
:1014400020F4907041E803022AB3206850E8030FAB
:10145000216820F4907041E80302002ADAD11AE0F2
:10146000206850E8050F216820F0010041E80502DE
:10147000DAB1206850E8050F216820F0010041E84A
:10148000050292B1206850E8050F216820F00100A4
:1014900041E805024AB1206850E8050F216820F0B4
:1014A000010041E80502002ADAD1206B012824D18D
:1014B000206850E8030F216820F0100041E8030283
:1014C000DAB1206850E8030F216820F0100041E8ED
:1014D000030292B1206850E8030F216820F0100049
:1014E00041E803024AB1206850E8030F216820F068
:1014F000100041E80302002ADAD1202084F84200DB
:10150000002008212063616484F84000032020212A
:1015100084F8421001B0BDE8F08300BFFFF7CAF9BC
:10152000F4E700002DE9F04381B0044690F8410053
:10153000202809D100294FF0010018BF002A07D147
:1015400001B0BDE8F08300BF022001B0BDE8F08328
:101550000020606421201D460E4684F84100174695
:10156000FFF7A8F9A784E784A1688146B1F5805FF9
:1015700002D1206900285DD037460020E28C216826
:10158000002A5DD06A1C24D0002D4AD0804600BFBE
:101590000868000608D4FFF78DF9A0EB0900A842FF
:1015A0007AD82168C868F3E717B117F8010B04E08F
:1015B00038F8020B00276FF35F204860E08C013899
:1015C000E084E08C0028E3D13AE000BF0A6812060C
:1015D00009D40A68120606D40A6812065CBF0A68B3
:1015E0005FEA0262F2D51FB117F8012B05E000BFD8
:1015F00030F8022B00276FF35F224A60E28C013A39
:10160000E284E28C002AE4D11AE000BF30F8022B19
:1016100000276FF35F224A60E28C013AE284E28C99
:1016200072B10A68120635D5002FEFD017F8012BDA
:10163000F1E700BF00273046E28C2168002AA1D1E3
:10164000086840061ED42DB3681C14D108684006F3
:101650002AD40868400627D40868400624D40868BD
:1016600040064FF00000F1D50DE000BF2068C168D2
:101670000068400618D4FFF71DF9A0EB0900A84246
:10168000F4D909E00020202184F8411001B0BDE820
:10169000F08300BFFFF70EF90320202184F84110EA
:1016A00001B0BDE8F08300BF0020202184F8411084
:1016B00001B0BDE8F0830000FEE70000FEE7000097
:1016C000FEE700007047000070470000FFF728B9F0
:1016D00070470000FEE7000084B043F60C40C0F6FF
:1016E0000000006843F60046039043F60840C0F649
:1016F00000000068C0F60006029043F60440C0F601
:10170000000000680190316844F24C20C4F24C2083
:10171000814200910ED000900020CDE9010003909D
:1017200030464FF4806100F0EDF8694630461022F3
:1017300000F018F9DDE901104FF60043C9B2B0FA24
:1017400080F2B1FA81F1C0F601035209490952EA67
:101750000107194645F2AA5406F5604818BF4146EC
:101760000A6803F1040B4EF60855C5F65A2459468B
:1017700041F60449CEF200051CBF41F60441C0F613
:101780000101A242C0F601093ED1096800293BD0FF
:1017900068B1039858B10138039030464FF4806126
:1017A00000F0B0F869463046102200F0DBF809F589
:1017B0007F79002F18BF06F5806949F00400BA460A
:1017C000D9F8007034460668FFF72EFAFEF72EFEB1
:1017D0004EF210010020CEF200010860EFF31080FD
:1017E00072B687F30888C5F8009062B6B0472646FF
:1017F000029845F2AA544FF60043C5F65A24C0F6A3
:101800000103B14618B90DE0BA46B14650B103988C
:1018100040B9002002900120019068461E4600F069
:1018200005FB3346BAF1000F18BF9846D8F8000000
:1018300041F60447C0F6010708BFBB46A0422FD1BE
:10184000DBF8000060B34FF0000848464FF48061B9
:10185000CDF80C80CDE901A800F054F8694648465F
:10186000102200F07FF809F58064BAF1000F18BF6C
:1018700007F57F7444F0040026680768FFF7D4F981
:10188000FEF7D4FD4EF21000CEF20000C0F800804A
:10189000EFF3108072B686F308882C6062B6B84702
:1018A00000F042F9FCE70000414048F22030CEF65B
:1018B000B85080EA5102CB0708BF4A0880EA5201BB
:1018C000D30708BF510880EA5102CB0708BF4A0876
:1018D00080EA5201D30708BF510880EA5102CB07C2
:1018E00008BF4A0880EA5201D30708BF510880EABE
:1018F0005102CB0708BF4A0880EA5200D10708BF4F
:10190000500870472DE9F04385B000240E46054687
:10191000CDE90344CDE90144FEF7A6FE2E44B542CD
:1019200011D24FF001090DF104086F4640463946C7
:101930000194CDE90359FEF789FD58B905F5806595
:10194000B542F3D30024FEF7F9FD204605B0BDE80B
:10195000F08300BF4FF0FF34FEF7F0FD204605B0E6
:10196000BDE8F0832DE9F04381B0144689468046F6
:10197000FEF77AFE64B3002603E000BF0236A642FB
:1019800026D2751CA5423ABF09EB0600407800201C
:1019900019F8061008EB060741EA00220120394633
:1019A0000023FEF7D5FDD8B9387819F8061088421B
:1019B00007D1A542E2D209EB06017878497888423E
:1019C000DCD04FF0FF34204601B0BDE8F08300BF0B
:1019D0000024FEF7B3FD204601B0BDE8F08300BF50
:1019E0004FF0FF34FEF7AAFD204601B0BDE8F083BA
:1019F00090B0FEF7A3FF0920002406904FF480303A
:101A00000225CDE90704CDE90D504FF4E010012186
:101A10000F9006A80B94CDE909440A910C91FFF7A9
:101A2000A1F928B1EFF3108072B600BFFEE700BF46
:101A30000F20CDE901054FF48060CDE9040401A831
:101A400002210394FFF712F820B1EFF3108072B671
:101A5000FEE700BF002641F21800CDE90866CDE997
:101A60000666C4F20200016841F2000441F0100170
:101A700001600168C4F2010401F0100101910199B3
:101A80000168002241F02001016001684FF4005517
:101A900001F0200101910199016841F00401016008
:101AA00000684FF4005100F00400019001982046B6
:101AB000FEF7FAFE0120CDE907060320099006A9EA
:101AC00020460695FEF7E8FD40F27005C2F20005DB
:101AD00004F52051284640F80C1F4FF4E1310C2248
:101AE000C0E90116C0E90366C0E90526C661FFF733
:101AF0004FFB28B1EFF3108072B600BFFEE700BFC6
:101B0000A4F5604040F6FF71C5E900062846A960CB
:101B1000FEF7D6FE20B1EFF3108072B6FEE700BFED
:101B2000FFF7DAFDFEE700002DE9F04FADF2345D7E
:101B300044F200090DF1130740F27C06C0F60009DB
:101B400007F10108781EC2F200060DF21F150DF50F
:101B50008C7A45AC0090CDF8048009E045208DF8E2
:101B6000340130464DA901224FF0FF33FFF7DAFC74
:101B70003046294601224FF0FF33FFF7BBFB9DF8AB
:101B80001F014628F4D13046514604224FF0FF335E
:101B9000FFF7B0FB3046214604224FF0FF33FFF73A
:101BA000A9FB4698B0F55C4FD8D84F208DF81200AD
:101BB00030460DF1120101224FF0FF334FF0FF3B91
:101BC000FFF7B0FC48464FF45C41FFF79BFEDDF8A1
:101BD00018A1BAF1000F00F0AB804FF0FF3B0025D9
:101BE0004FF000080124CDF80C9000BFAAEB0809C3
:101BF0004FF48070B9F5807F28BF814609F101025A
:101C0000304639464FF0FF33FFF774FBC24502956B
:101C100004D117F80900002862D0ABE05544B5F5AF
:101C2000807F4FF4807C38BFAC46BCF1010F98BF79
:101C3000A446042D06D2002000221CF0030129D165
:101C400035E000BF4FF48070B5F5807F38BF28467F
:101C5000012898BF204600F4FE70DDF804E04242FF
:101C600000206FF0030300BF0EEB0307FC783E7902
:101C700079796040BF79704004334840D11804310D
:101C800080EA0700F0D11A1D0DF1130701241CF0A2
:101C900003010CD0BB5C012980EA030007D03A4461
:101CA0005378022980EA03001CBF9178484017F856
:101CB000091088425ED1C24512D0B5F5807F4FF43D
:101CC000807028BF0546012D98BF2546009E00BFA5
:101CD00016F8011F5846FFF7E7FD013D8346F7D18F
:101CE000039D394628464A46FFF73CFE28463946BA
:101CF0004A46FFF737FE01304ED040F27C064120C5
:101D0000C2F200068DF8340130464DA901224FF091
:101D1000FF33FFF707FC4D440395DDF818A1029D42
:101D200008F58078D045A5F58075FFF45FAF02E037
:101D30004FF0000A0124459880EA0B01013119D1C6
:101D400045F2AA5144F20009C5F65A214DAA509015
:101D50004FF48030C0F6000982E81204519009F572
:101D60005C404DA900F008F90DF21F150DF58C7AB5
:101D700045ACFDE645208DF8340140F27C00C2F20E
:101D800000004DA901224FF0FF33FFF7CBFB0DF20E
:101D9000345DBDE8F08F00BF45208DF8110040F2A2
:101DA0007C00C2F200000DF1110101224FF0FF335F
:101DB000FFF7B8FB44F20007C0F6000738464FF4BF
:101DC0006041FFF79FFD38464FF45C41FFF79AFDF5
:101DD0004FF60046CFF6FF764DAC00BF06F58066A5
:101DE000F51905F5604120464FF48062FEF747FA89
:101DF000284621464FF48062FFF7B4FDB6F5584FF0
:101E0000ECD348AC07F5DE30214600F009F807F5C1
:101E10005C40214600F0B0F80DF2345DBDE8F08F73
:101E20000246084611461422FEF7E4B970B586B0A2
:101E300043F6004500260446C0F600050396FEF76B
:101E400013FC0120059002A801A902960495FEF753
:101E5000FDFAFEF773FBFEF707FC228801202946F6
:101E60000023FEF775FB18B1FEF768FB06B070BDE6
:101E7000287821788842F9D1687861788842F5D14C
:101E80006288A91C01200023FEF762FB0028EBD129
:101E9000A878A1788842E9D1E878E1788842E5D14C
:101EA000A288291D01200023FEF752FB0028DBD168
:101EB000287921798842D9D1687961798842D5D148
:101EC000E288A91D01200023FEF742FB0028CBD1A8
:101ED000A879A1798842C9D1E879E1798842C5D148
:101EE000228905F1080101200023FEF731FB0028BB
:101EF000BAD1287A217A8842B8D1687A617A884240
:101F0000B4D1628905F10A0101200023FEF720FB0C
:101F10000028A9D1A87AA17A8842A7D1E87AE17AE3
:101F20008842A3D1A28905F10C0101200023FEF70C
:101F30000FFB002898D1287B217B884296D1687BB3
:101F4000617B88427FF492AFE28905F10E010120A6
:101F50000023FEF7FDFA00287FF486AFA87BA17B63
:101F600088427FF483AFE87BE17B884208BFFEF7BD
:101F7000E5FA06B070BD00002DE9F04F85B04FF0D6
:101F8000000B88468146CDE903BBCDE901BBFEF7D6
:101F90006BFB19F5806F14D209F580654FF0010ACB
:101FA00001AE6F464C4600BF30463946CDF804B00E
:101FB000CDE9034AFEF74AFA18B904F58064AC4249
:101FC000F2D3FEF7BBFAFEF74FFBB8F80020012072
:101FD00049460023FEF7BCFA20B1FEF7AFFA05B080
:101FE000BDE8F08F99F8000098F800108842F6D10B
:101FF00099F8010098F801108842F0D1B8F8022051
:1020000009F10206012031460023FEF7A1FA00285B
:10201000E3D1307898F802108842E0D1707898F8CF
:1020200003108842DBD1B8F8042009F1040601202E
:1020300031460023FEF78CFA0028CED1307898F88C
:1020400004108842CBD1707898F805108842C6D128
:10205000B8F8062009F10606012031460023FEF7F4
:1020600077FA0028B9D1307898F806108842B6D1AE
:10207000707898F807108842B1D1B8F8082009F1B3
:102080000806012031460023FEF762FA0028A4D199
:10209000307898F808108842A1D1707898F8091023
:1020A00088429CD1B8F80A2009F10A06012031467D
:1020B0000023FEF74DFA00287FF48FAF307898F8B0
:1020C0000A1088427FF48BAF707898F80B10884222
:1020D0007FF485AFB8F80C2009F10C0601203146D9
:1020E0000023FEF735FA00287FF477AF307898F8B0
:1020F0000C1088427FF473AF707898F80D10884206
:102100007FF46DAFB8F80E2009F10E0601203146BC
:102110000023FEF71DFA00287FF45FAF307898F8AF
:102120000E1088427FF45BAF707898F80F108842E9
:102130007FF455AFB8F8102009F1100601203146A0
:102140000023FEF705FA00287FF447AF307898F8AF
:10215000101088427FF443AF707898F811108842CD
:102160007FF43DAFB8F8122009F11205012029468D
:102170000023FEF7EDF900287FF42FAF287898F8B8
:10218000121088427FF42BAF687898F813108842B9
:1021900008BFFEF7D3F905B0BDE8F08F00000000DE
:1021A0000000000001020304060708090000000007
:1021B00001020304010202030405060708090A0BD1
:1021C0000C0D0E0F10100000E82100080000002088
:1021D0001000000050010008F82100081000002045
:1021E000E00600007001000801000000100000007F
:0821F00000127A00000000005B
:04000005080000ED02
:00000001FF
